{
  "contractName": "petshop",
  "abi": [
    {
      "inputs": [],
      "stateMutability": "nonpayable",
      "type": "constructor"
    },
    {
      "anonymous": false,
      "inputs": [
        {
          "indexed": true,
          "internalType": "address",
          "name": "owner",
          "type": "address"
        },
        {
          "indexed": true,
          "internalType": "address",
          "name": "approved",
          "type": "address"
        },
        {
          "indexed": true,
          "internalType": "uint256",
          "name": "tokenId",
          "type": "uint256"
        }
      ],
      "name": "Approval",
      "type": "event"
    },
    {
      "anonymous": false,
      "inputs": [
        {
          "indexed": true,
          "internalType": "address",
          "name": "owner",
          "type": "address"
        },
        {
          "indexed": true,
          "internalType": "address",
          "name": "operator",
          "type": "address"
        },
        {
          "indexed": false,
          "internalType": "bool",
          "name": "approved",
          "type": "bool"
        }
      ],
      "name": "ApprovalForAll",
      "type": "event"
    },
    {
      "anonymous": false,
      "inputs": [
        {
          "indexed": true,
          "internalType": "address",
          "name": "from",
          "type": "address"
        },
        {
          "indexed": true,
          "internalType": "address",
          "name": "to",
          "type": "address"
        },
        {
          "indexed": true,
          "internalType": "uint256",
          "name": "tokenId",
          "type": "uint256"
        }
      ],
      "name": "Transfer",
      "type": "event"
    },
    {
      "anonymous": false,
      "inputs": [
        {
          "indexed": false,
          "internalType": "uint256",
          "name": "tokenId",
          "type": "uint256"
        },
        {
          "indexed": false,
          "internalType": "string",
          "name": "image",
          "type": "string"
        },
        {
          "indexed": false,
          "internalType": "string",
          "name": "breed",
          "type": "string"
        },
        {
          "indexed": false,
          "internalType": "string",
          "name": "location",
          "type": "string"
        },
        {
          "indexed": false,
          "internalType": "uint256",
          "name": "price",
          "type": "uint256"
        },
        {
          "indexed": false,
          "internalType": "address",
          "name": "owner",
          "type": "address"
        },
        {
          "indexed": false,
          "internalType": "bool",
          "name": "sold",
          "type": "bool"
        }
      ],
      "name": "pets",
      "type": "event"
    },
    {
      "inputs": [
        {
          "internalType": "uint256",
          "name": "",
          "type": "uint256"
        }
      ],
      "name": "AllPets",
      "outputs": [
        {
          "internalType": "uint256",
          "name": "tokenId",
          "type": "uint256"
        },
        {
          "internalType": "string",
          "name": "image",
          "type": "string"
        },
        {
          "internalType": "string",
          "name": "breed",
          "type": "string"
        },
        {
          "internalType": "string",
          "name": "location",
          "type": "string"
        },
        {
          "internalType": "uint256",
          "name": "price",
          "type": "uint256"
        },
        {
          "internalType": "address",
          "name": "owner",
          "type": "address"
        },
        {
          "internalType": "bool",
          "name": "sold",
          "type": "bool"
        }
      ],
      "stateMutability": "view",
      "type": "function",
      "constant": true
    },
    {
      "inputs": [],
      "name": "_tokenId",
      "outputs": [
        {
          "internalType": "uint256",
          "name": "",
          "type": "uint256"
        }
      ],
      "stateMutability": "view",
      "type": "function",
      "constant": true
    },
    {
      "inputs": [
        {
          "internalType": "address",
          "name": "to",
          "type": "address"
        },
        {
          "internalType": "uint256",
          "name": "tokenId",
          "type": "uint256"
        }
      ],
      "name": "approve",
      "outputs": [],
      "stateMutability": "nonpayable",
      "type": "function"
    },
    {
      "inputs": [
        {
          "internalType": "address",
          "name": "owner",
          "type": "address"
        }
      ],
      "name": "balanceOf",
      "outputs": [
        {
          "internalType": "uint256",
          "name": "",
          "type": "uint256"
        }
      ],
      "stateMutability": "view",
      "type": "function",
      "constant": true
    },
    {
      "inputs": [
        {
          "internalType": "uint256",
          "name": "tokenId",
          "type": "uint256"
        }
      ],
      "name": "getApproved",
      "outputs": [
        {
          "internalType": "address",
          "name": "",
          "type": "address"
        }
      ],
      "stateMutability": "view",
      "type": "function",
      "constant": true
    },
    {
      "inputs": [
        {
          "internalType": "address",
          "name": "owner",
          "type": "address"
        },
        {
          "internalType": "address",
          "name": "operator",
          "type": "address"
        }
      ],
      "name": "isApprovedForAll",
      "outputs": [
        {
          "internalType": "bool",
          "name": "",
          "type": "bool"
        }
      ],
      "stateMutability": "view",
      "type": "function",
      "constant": true
    },
    {
      "inputs": [
        {
          "internalType": "address",
          "name": "",
          "type": "address"
        }
      ],
      "name": "myPets",
      "outputs": [
        {
          "internalType": "uint256",
          "name": "tokenId",
          "type": "uint256"
        },
        {
          "internalType": "string",
          "name": "image",
          "type": "string"
        },
        {
          "internalType": "string",
          "name": "breed",
          "type": "string"
        },
        {
          "internalType": "string",
          "name": "location",
          "type": "string"
        },
        {
          "internalType": "uint256",
          "name": "price",
          "type": "uint256"
        },
        {
          "internalType": "address",
          "name": "owner",
          "type": "address"
        },
        {
          "internalType": "bool",
          "name": "sold",
          "type": "bool"
        }
      ],
      "stateMutability": "view",
      "type": "function",
      "constant": true
    },
    {
      "inputs": [],
      "name": "name",
      "outputs": [
        {
          "internalType": "string",
          "name": "",
          "type": "string"
        }
      ],
      "stateMutability": "view",
      "type": "function",
      "constant": true
    },
    {
      "inputs": [
        {
          "internalType": "uint256",
          "name": "tokenId",
          "type": "uint256"
        }
      ],
      "name": "ownerOf",
      "outputs": [
        {
          "internalType": "address",
          "name": "",
          "type": "address"
        }
      ],
      "stateMutability": "view",
      "type": "function",
      "constant": true
    },
    {
      "inputs": [
        {
          "internalType": "address",
          "name": "from",
          "type": "address"
        },
        {
          "internalType": "address",
          "name": "to",
          "type": "address"
        },
        {
          "internalType": "uint256",
          "name": "tokenId",
          "type": "uint256"
        }
      ],
      "name": "safeTransferFrom",
      "outputs": [],
      "stateMutability": "nonpayable",
      "type": "function"
    },
    {
      "inputs": [
        {
          "internalType": "address",
          "name": "from",
          "type": "address"
        },
        {
          "internalType": "address",
          "name": "to",
          "type": "address"
        },
        {
          "internalType": "uint256",
          "name": "tokenId",
          "type": "uint256"
        },
        {
          "internalType": "bytes",
          "name": "_data",
          "type": "bytes"
        }
      ],
      "name": "safeTransferFrom",
      "outputs": [],
      "stateMutability": "nonpayable",
      "type": "function"
    },
    {
      "inputs": [
        {
          "internalType": "address",
          "name": "operator",
          "type": "address"
        },
        {
          "internalType": "bool",
          "name": "approved",
          "type": "bool"
        }
      ],
      "name": "setApprovalForAll",
      "outputs": [],
      "stateMutability": "nonpayable",
      "type": "function"
    },
    {
      "inputs": [
        {
          "internalType": "bytes4",
          "name": "interfaceId",
          "type": "bytes4"
        }
      ],
      "name": "supportsInterface",
      "outputs": [
        {
          "internalType": "bool",
          "name": "",
          "type": "bool"
        }
      ],
      "stateMutability": "view",
      "type": "function",
      "constant": true
    },
    {
      "inputs": [],
      "name": "symbol",
      "outputs": [
        {
          "internalType": "string",
          "name": "",
          "type": "string"
        }
      ],
      "stateMutability": "view",
      "type": "function",
      "constant": true
    },
    {
      "inputs": [
        {
          "internalType": "uint256",
          "name": "tokenId",
          "type": "uint256"
        }
      ],
      "name": "tokenURI",
      "outputs": [
        {
          "internalType": "string",
          "name": "",
          "type": "string"
        }
      ],
      "stateMutability": "view",
      "type": "function",
      "constant": true
    },
    {
      "inputs": [
        {
          "internalType": "address",
          "name": "from",
          "type": "address"
        },
        {
          "internalType": "address",
          "name": "to",
          "type": "address"
        },
        {
          "internalType": "uint256",
          "name": "tokenId",
          "type": "uint256"
        }
      ],
      "name": "transferFrom",
      "outputs": [],
      "stateMutability": "nonpayable",
      "type": "function"
    },
    {
      "inputs": [
        {
          "internalType": "string",
          "name": "_image",
          "type": "string"
        },
        {
          "internalType": "string",
          "name": "_breed",
          "type": "string"
        },
        {
          "internalType": "string",
          "name": "_location",
          "type": "string"
        },
        {
          "internalType": "uint256",
          "name": "_price",
          "type": "uint256"
        }
      ],
      "name": "registerPet",
      "outputs": [
        {
          "internalType": "bool",
          "name": "",
          "type": "bool"
        }
      ],
      "stateMutability": "nonpayable",
      "type": "function"
    },
    {
      "inputs": [
        {
          "internalType": "uint256",
          "name": "tokenId",
          "type": "uint256"
        }
      ],
      "name": "buyPet",
      "outputs": [
        {
          "internalType": "bool",
          "name": "",
          "type": "bool"
        }
      ],
      "stateMutability": "payable",
      "type": "function",
      "payable": true
    },
    {
      "inputs": [],
      "name": "getAllPets",
      "outputs": [
        {
          "components": [
            {
              "internalType": "uint256",
              "name": "tokenId",
              "type": "uint256"
            },
            {
              "internalType": "string",
              "name": "image",
              "type": "string"
            },
            {
              "internalType": "string",
              "name": "breed",
              "type": "string"
            },
            {
              "internalType": "string",
              "name": "location",
              "type": "string"
            },
            {
              "internalType": "uint256",
              "name": "price",
              "type": "uint256"
            },
            {
              "internalType": "address",
              "name": "owner",
              "type": "address"
            },
            {
              "internalType": "bool",
              "name": "sold",
              "type": "bool"
            }
          ],
          "internalType": "struct petshop.Pet[]",
          "name": "",
          "type": "tuple[]"
        }
      ],
      "stateMutability": "view",
      "type": "function",
      "constant": true
    }
  ],
  "bytecode": "0x60806040523480156200001157600080fd5b506040518060400160405280600881526020017f5045542053484f500000000000000000000000000000000000000000000000008152506040518060400160405280600281526020017f5053000000000000000000000000000000000000000000000000000000000000815250816000908051906020019062000096929190620000b8565b508060019080519060200190620000af929190620000b8565b505050620001cd565b828054620000c69062000168565b90600052602060002090601f016020900481019282620000ea576000855562000136565b82601f106200010557805160ff191683800117855562000136565b8280016001018555821562000136579182015b828111156200013557825182559160200191906001019062000118565b5b50905062000145919062000149565b5090565b5b80821115620001645760008160009055506001016200014a565b5090565b600060028204905060018216806200018157607f821691505b602082108114156200019857620001976200019e565b5b50919050565b7f4e487b7100000000000000000000000000000000000000000000000000000000600052602260045260246000fd5b613e7480620001dd6000396000f3fe6080604052600436106101145760003560e01c806370a08231116100a0578063b88d4fde11610064578063b88d4fde146103ca578063c87b56dd146103f3578063d627fea414610430578063e985e9c514610473578063ec48a235146104b057610114565b806370a08231146102cc57806395d89b411461030957806396808e0d146103345780639edded1114610371578063a22cb465146103a157610114565b806323b872dd116100e757806323b872dd146101e7578063248225141461021057806342842e0e1461023b5780635b236d97146102645780636352211e1461028f57610114565b806301ffc9a71461011957806306fdde0314610156578063081812fc14610181578063095ea7b3146101be575b600080fd5b34801561012557600080fd5b50610140600480360381019061013b9190612a65565b6104f3565b60405161014d91906135c4565b60405180910390f35b34801561016257600080fd5b5061016b6105d5565b60405161017891906135df565b60405180910390f35b34801561018d57600080fd5b506101a860048036038101906101a39190612b62565b610667565b6040516101b5919061353b565b60405180910390f35b3480156101ca57600080fd5b506101e560048036038101906101e09190612a29565b6106ec565b005b3480156101f357600080fd5b5061020e60048036038101906102099190612923565b610804565b005b34801561021c57600080fd5b50610225610864565b6040516102329190613881565b60405180910390f35b34801561024757600080fd5b50610262600480360381019061025d9190612923565b61086a565b005b34801561027057600080fd5b5061027961088a565b60405161028691906135a2565b60405180910390f35b34801561029b57600080fd5b506102b660048036038101906102b19190612b62565b610b24565b6040516102c3919061353b565b60405180910390f35b3480156102d857600080fd5b506102f360048036038101906102ee91906128be565b610bd6565b6040516103009190613881565b60405180910390f35b34801561031557600080fd5b5061031e610c8e565b60405161032b91906135df565b60405180910390f35b34801561034057600080fd5b5061035b60048036038101906103569190612ab7565b610d20565b60405161036891906135c4565b60405180910390f35b61038b60048036038101906103869190612b62565b611103565b60405161039891906135c4565b60405180910390f35b3480156103ad57600080fd5b506103c860048036038101906103c391906129ed565b61132d565b005b3480156103d657600080fd5b506103f160048036038101906103ec9190612972565b6114ae565b005b3480156103ff57600080fd5b5061041a60048036038101906104159190612b62565b611510565b60405161042791906135df565b60405180910390f35b34801561043c57600080fd5b50610457600480360381019061045291906128be565b611662565b60405161046a9796959493929190613920565b60405180910390f35b34801561047f57600080fd5b5061049a600480360381019061049591906128e7565b611869565b6040516104a791906135c4565b60405180910390f35b3480156104bc57600080fd5b506104d760048036038101906104d29190612b62565b6118fd565b6040516104ea9796959493929190613920565b60405180910390f35b60007f80ac58cd000000000000000000000000000000000000000000000000000000007bffffffffffffffffffffffffffffffffffffffffffffffffffffffff1916827bffffffffffffffffffffffffffffffffffffffffffffffffffffffff191614806105be57507f5b5e139f000000000000000000000000000000000000000000000000000000007bffffffffffffffffffffffffffffffffffffffffffffffffffffffff1916827bffffffffffffffffffffffffffffffffffffffffffffffffffffffff1916145b806105ce57506105cd82611b04565b5b9050919050565b6060600080546105e490613c69565b80601f016020809104026020016040519081016040528092919081815260200182805461061090613c69565b801561065d5780601f106106325761010080835404028352916020019161065d565b820191906000526020600020905b81548152906001019060200180831161064057829003601f168201915b5050505050905090565b600061067282611b6e565b6106b1576040517f08c379a00000000000000000000000000000000000000000000000000000000081526004016106a890613781565b60405180910390fd5b6004600083815260200190815260200160002060009054906101000a900473ffffffffffffffffffffffffffffffffffffffff169050919050565b60006106f782610b24565b90508073ffffffffffffffffffffffffffffffffffffffff168373ffffffffffffffffffffffffffffffffffffffff161415610768576040517f08c379a000000000000000000000000000000000000000000000000000000000815260040161075f90613821565b60405180910390fd5b8073ffffffffffffffffffffffffffffffffffffffff16610787611bda565b73ffffffffffffffffffffffffffffffffffffffff1614806107b657506107b5816107b0611bda565b611869565b5b6107f5576040517f08c379a00000000000000000000000000000000000000000000000000000000081526004016107ec906136c1565b60405180910390fd5b6107ff8383611be2565b505050565b61081561080f611bda565b82611c9b565b610854576040517f08c379a000000000000000000000000000000000000000000000000000000000815260040161084b90613841565b60405180910390fd5b61085f838383611d79565b505050565b60075481565b610885838383604051806020016040528060008152506114ae565b505050565b60606008805480602002602001604051908101604052809291908181526020016000905b82821015610b1b57838290600052602060002090600602016040518060e0016040529081600082015481526020016001820180546108eb90613c69565b80601f016020809104026020016040519081016040528092919081815260200182805461091790613c69565b80156109645780601f1061093957610100808354040283529160200191610964565b820191906000526020600020905b81548152906001019060200180831161094757829003601f168201915b5050505050815260200160028201805461097d90613c69565b80601f01602080910402602001604051908101604052809291908181526020018280546109a990613c69565b80156109f65780601f106109cb576101008083540402835291602001916109f6565b820191906000526020600020905b8154815290600101906020018083116109d957829003601f168201915b50505050508152602001600382018054610a0f90613c69565b80601f0160208091040260200160405190810160405280929190818152602001828054610a3b90613c69565b8015610a885780601f10610a5d57610100808354040283529160200191610a88565b820191906000526020600020905b815481529060010190602001808311610a6b57829003601f168201915b50505050508152602001600482015481526020016005820160009054906101000a900473ffffffffffffffffffffffffffffffffffffffff1673ffffffffffffffffffffffffffffffffffffffff1673ffffffffffffffffffffffffffffffffffffffff1681526020016005820160149054906101000a900460ff161515151581525050815260200190600101906108ae565b50505050905090565b6000806002600084815260200190815260200160002060009054906101000a900473ffffffffffffffffffffffffffffffffffffffff169050600073ffffffffffffffffffffffffffffffffffffffff168173ffffffffffffffffffffffffffffffffffffffff161415610bcd576040517f08c379a0000000000000000000000000000000000000000000000000000000008152600401610bc490613701565b60405180910390fd5b80915050919050565b60008073ffffffffffffffffffffffffffffffffffffffff168273ffffffffffffffffffffffffffffffffffffffff161415610c47576040517f08c379a0000000000000000000000000000000000000000000000000000000008152600401610c3e906136e1565b60405180910390fd5b600360008373ffffffffffffffffffffffffffffffffffffffff1673ffffffffffffffffffffffffffffffffffffffff168152602001908152602001600020549050919050565b606060018054610c9d90613c69565b80601f0160208091040260200160405190810160405280929190818152602001828054610cc990613c69565b8015610d165780601f10610ceb57610100808354040283529160200191610d16565b820191906000526020600020905b815481529060010190602001808311610cf957829003601f168201915b5050505050905090565b600060076000815480929190610d3590613c9b565b91905055506000339050610d4761268d565b6040518060e0016040528060075481526020018881526020018781526020018681526020018581526020018373ffffffffffffffffffffffffffffffffffffffff16815260200160001515815250905080600960003373ffffffffffffffffffffffffffffffffffffffff1673ffffffffffffffffffffffffffffffffffffffff168152602001908152602001600020600082015181600001556020820151816001019080519060200190610dfd9291906126e2565b506040820151816002019080519060200190610e1a9291906126e2565b506060820151816003019080519060200190610e379291906126e2565b506080820151816004015560a08201518160050160006101000a81548173ffffffffffffffffffffffffffffffffffffffff021916908373ffffffffffffffffffffffffffffffffffffffff16021790555060c08201518160050160146101000a81548160ff02191690831515021790555090505080600a60006007548152602001908152602001600020600082015181600001556020820151816001019080519060200190610ee89291906126e2565b506040820151816002019080519060200190610f059291906126e2565b506060820151816003019080519060200190610f229291906126e2565b506080820151816004015560a08201518160050160006101000a81548173ffffffffffffffffffffffffffffffffffffffff021916908373ffffffffffffffffffffffffffffffffffffffff16021790555060c08201518160050160146101000a81548160ff0219169083151502179055509050506008819080600181540180825580915050600190039060005260206000209060060201600090919091909150600082015181600001556020820151816001019080519060200190610fe99291906126e2565b5060408201518160020190805190602001906110069291906126e2565b5060608201518160030190805190602001906110239291906126e2565b506080820151816004015560a08201518160050160006101000a81548173ffffffffffffffffffffffffffffffffffffffff021916908373ffffffffffffffffffffffffffffffffffffffff16021790555060c08201518160050160146101000a81548160ff02191690831515021790555050506110a333600754611fd5565b6110af600754886121a3565b7fbf8b6923ba6f7467aa7c7d9f01d5aa84b40c49a1363930977869125d2271ccad600754888888888760006040516110ed979695949392919061389c565b60405180910390a1600192505050949350505050565b600061110e82611b6e565b61114d576040517f08c379a000000000000000000000000000000000000000000000000000000000815260040161114490613801565b60405180910390fd5b60008211611190576040517f08c379a000000000000000000000000000000000000000000000000000000000815260040161118790613861565b60405180910390fd5b600034116111d3576040517f08c379a00000000000000000000000000000000000000000000000000000000081526004016111ca906137c1565b60405180910390fd5b6000600a600084815260200190815260200160002060050160009054906101000a900473ffffffffffffffffffffffffffffffffffffffff1690503373ffffffffffffffffffffffffffffffffffffffff16600960008373ffffffffffffffffffffffffffffffffffffffff1673ffffffffffffffffffffffffffffffffffffffff16815260200190815260200160002060050160009054906101000a900473ffffffffffffffffffffffffffffffffffffffff1673ffffffffffffffffffffffffffffffffffffffff1614156112df576040517f08c379a00000000000000000000000000000000000000000000000000000000081526004016112d690613681565b60405180910390fd5b60008173ffffffffffffffffffffffffffffffffffffffff166108fc349081150290604051600060405180830381858888f193505050509050611323823386611d79565b8092505050919050565b611335611bda565b73ffffffffffffffffffffffffffffffffffffffff168273ffffffffffffffffffffffffffffffffffffffff1614156113a3576040517f08c379a000000000000000000000000000000000000000000000000000000000815260040161139a90613661565b60405180910390fd5b80600560006113b0611bda565b73ffffffffffffffffffffffffffffffffffffffff1673ffffffffffffffffffffffffffffffffffffffff16815260200190815260200160002060008473ffffffffffffffffffffffffffffffffffffffff1673ffffffffffffffffffffffffffffffffffffffff16815260200190815260200160002060006101000a81548160ff0219169083151502179055508173ffffffffffffffffffffffffffffffffffffffff1661145d611bda565b73ffffffffffffffffffffffffffffffffffffffff167f17307eab39ab6107e8899845ad3d59bd9653f200f220920489ca2b5937696c31836040516114a291906135c4565b60405180910390a35050565b6114bf6114b9611bda565b83611c9b565b6114fe576040517f08c379a00000000000000000000000000000000000000000000000000000000081526004016114f590613841565b60405180910390fd5b61150a84848484612217565b50505050565b606061151b82611b6e565b61155a576040517f08c379a000000000000000000000000000000000000000000000000000000000815260040161155190613761565b60405180910390fd5b600060066000848152602001908152602001600020805461157a90613c69565b80601f01602080910402602001604051908101604052809291908181526020018280546115a690613c69565b80156115f35780601f106115c8576101008083540402835291602001916115f3565b820191906000526020600020905b8154815290600101906020018083116115d657829003601f168201915b505050505090506000611604612273565b905060008151141561161a57819250505061165d565b60008251111561164f578082604051602001611637929190613517565b6040516020818303038152906040529250505061165d565b6116588461228a565b925050505b919050565b600960205280600052604060002060009150905080600001549080600101805461168b90613c69565b80601f01602080910402602001604051908101604052809291908181526020018280546116b790613c69565b80156117045780601f106116d957610100808354040283529160200191611704565b820191906000526020600020905b8154815290600101906020018083116116e757829003601f168201915b50505050509080600201805461171990613c69565b80601f016020809104026020016040519081016040528092919081815260200182805461174590613c69565b80156117925780601f1061176757610100808354040283529160200191611792565b820191906000526020600020905b81548152906001019060200180831161177557829003601f168201915b5050505050908060030180546117a790613c69565b80601f01602080910402602001604051908101604052809291908181526020018280546117d390613c69565b80156118205780601f106117f557610100808354040283529160200191611820565b820191906000526020600020905b81548152906001019060200180831161180357829003601f168201915b5050505050908060040154908060050160009054906101000a900473ffffffffffffffffffffffffffffffffffffffff16908060050160149054906101000a900460ff16905087565b6000600560008473ffffffffffffffffffffffffffffffffffffffff1673ffffffffffffffffffffffffffffffffffffffff16815260200190815260200160002060008373ffffffffffffffffffffffffffffffffffffffff1673ffffffffffffffffffffffffffffffffffffffff16815260200190815260200160002060009054906101000a900460ff16905092915050565b600a60205280600052604060002060009150905080600001549080600101805461192690613c69565b80601f016020809104026020016040519081016040528092919081815260200182805461195290613c69565b801561199f5780601f106119745761010080835404028352916020019161199f565b820191906000526020600020905b81548152906001019060200180831161198257829003601f168201915b5050505050908060020180546119b490613c69565b80601f01602080910402602001604051908101604052809291908181526020018280546119e090613c69565b8015611a2d5780601f10611a0257610100808354040283529160200191611a2d565b820191906000526020600020905b815481529060010190602001808311611a1057829003601f168201915b505050505090806003018054611a4290613c69565b80601f0160208091040260200160405190810160405280929190818152602001828054611a6e90613c69565b8015611abb5780601f10611a9057610100808354040283529160200191611abb565b820191906000526020600020905b815481529060010190602001808311611a9e57829003601f168201915b5050505050908060040154908060050160009054906101000a900473ffffffffffffffffffffffffffffffffffffffff16908060050160149054906101000a900460ff16905087565b60007f01ffc9a7000000000000000000000000000000000000000000000000000000007bffffffffffffffffffffffffffffffffffffffffffffffffffffffff1916827bffffffffffffffffffffffffffffffffffffffffffffffffffffffff1916149050919050565b60008073ffffffffffffffffffffffffffffffffffffffff166002600084815260200190815260200160002060009054906101000a900473ffffffffffffffffffffffffffffffffffffffff1673ffffffffffffffffffffffffffffffffffffffff1614159050919050565b600033905090565b816004600083815260200190815260200160002060006101000a81548173ffffffffffffffffffffffffffffffffffffffff021916908373ffffffffffffffffffffffffffffffffffffffff160217905550808273ffffffffffffffffffffffffffffffffffffffff16611c5583610b24565b73ffffffffffffffffffffffffffffffffffffffff167f8c5be1e5ebec7d5bd14f71427d1e84f3dd0314c0f7b2291e5b200ac8c7c3b92560405160405180910390a45050565b6000611ca682611b6e565b611ce5576040517f08c379a0000000000000000000000000000000000000000000000000000000008152600401611cdc906136a1565b60405180910390fd5b6000611cf083610b24565b90508073ffffffffffffffffffffffffffffffffffffffff168473ffffffffffffffffffffffffffffffffffffffff161480611d5f57508373ffffffffffffffffffffffffffffffffffffffff16611d4784610667565b73ffffffffffffffffffffffffffffffffffffffff16145b80611d705750611d6f8185611869565b5b91505092915050565b8273ffffffffffffffffffffffffffffffffffffffff16611d9982610b24565b73ffffffffffffffffffffffffffffffffffffffff1614611def576040517f08c379a0000000000000000000000000000000000000000000000000000000008152600401611de6906137a1565b60405180910390fd5b600073ffffffffffffffffffffffffffffffffffffffff168273ffffffffffffffffffffffffffffffffffffffff161415611e5f576040517f08c379a0000000000000000000000000000000000000000000000000000000008152600401611e5690613641565b60405180910390fd5b611e6a838383612331565b611e75600082611be2565b6001600360008573ffffffffffffffffffffffffffffffffffffffff1673ffffffffffffffffffffffffffffffffffffffff1681526020019081526020016000206000828254611ec59190613b49565b925050819055506001600360008473ffffffffffffffffffffffffffffffffffffffff1673ffffffffffffffffffffffffffffffffffffffff1681526020019081526020016000206000828254611f1c9190613ac2565b92505081905550816002600083815260200190815260200160002060006101000a81548173ffffffffffffffffffffffffffffffffffffffff021916908373ffffffffffffffffffffffffffffffffffffffff160217905550808273ffffffffffffffffffffffffffffffffffffffff168473ffffffffffffffffffffffffffffffffffffffff167fddf252ad1be2c89b69c2b068fc378daa952ba7f163c4a11628f55a4df523b3ef60405160405180910390a4505050565b600073ffffffffffffffffffffffffffffffffffffffff168273ffffffffffffffffffffffffffffffffffffffff161415612045576040517f08c379a000000000000000000000000000000000000000000000000000000000815260040161203c90613741565b60405180910390fd5b61204e81611b6e565b1561208e576040517f08c379a000000000000000000000000000000000000000000000000000000000815260040161208590613621565b60405180910390fd5b61209a60008383612331565b6001600360008473ffffffffffffffffffffffffffffffffffffffff1673ffffffffffffffffffffffffffffffffffffffff16815260200190815260200160002060008282546120ea9190613ac2565b92505081905550816002600083815260200190815260200160002060006101000a81548173ffffffffffffffffffffffffffffffffffffffff021916908373ffffffffffffffffffffffffffffffffffffffff160217905550808273ffffffffffffffffffffffffffffffffffffffff16600073ffffffffffffffffffffffffffffffffffffffff167fddf252ad1be2c89b69c2b068fc378daa952ba7f163c4a11628f55a4df523b3ef60405160405180910390a45050565b6121ac82611b6e565b6121eb576040517f08c379a00000000000000000000000000000000000000000000000000000000081526004016121e290613721565b60405180910390fd5b806006600084815260200190815260200160002090805190602001906122129291906126e2565b505050565b612222848484611d79565b61222e84848484612336565b61226d576040517f08c379a000000000000000000000000000000000000000000000000000000000815260040161226490613601565b60405180910390fd5b50505050565b606060405180602001604052806000815250905090565b606061229582611b6e565b6122d4576040517f08c379a00000000000000000000000000000000000000000000000000000000081526004016122cb906137e1565b60405180910390fd5b60006122de612273565b905060008151116122fe5760405180602001604052806000815250612329565b80612308846124cd565b604051602001612319929190613517565b6040516020818303038152906040525b915050919050565b505050565b60006123578473ffffffffffffffffffffffffffffffffffffffff1661267a565b156124c0578373ffffffffffffffffffffffffffffffffffffffff1663150b7a02612380611bda565b8786866040518563ffffffff1660e01b81526004016123a29493929190613556565b602060405180830381600087803b1580156123bc57600080fd5b505af19250505080156123ed57506040513d601f19601f820116820180604052508101906123ea9190612a8e565b60015b612470573d806000811461241d576040519150601f19603f3d011682016040523d82523d6000602084013e612422565b606091505b50600081511415612468576040517f08c379a000000000000000000000000000000000000000000000000000000000815260040161245f90613601565b60405180910390fd5b805181602001fd5b63150b7a0260e01b7bffffffffffffffffffffffffffffffffffffffffffffffffffffffff1916817bffffffffffffffffffffffffffffffffffffffffffffffffffffffff1916149150506124c5565b600190505b949350505050565b60606000821415612515576040518060400160405280600181526020017f30000000000000000000000000000000000000000000000000000000000000008152509050612675565b600082905060005b6000821461254757808061253090613c9b565b915050600a826125409190613b18565b915061251d565b60008167ffffffffffffffff811115612589577f4e487b7100000000000000000000000000000000000000000000000000000000600052604160045260246000fd5b6040519080825280601f01601f1916602001820160405280156125bb5781602001600182028036833780820191505090505b5090505b6000851461266e576001826125d49190613b49565b9150600a856125e39190613ce4565b60306125ef9190613ac2565b60f81b81838151811061262b577f4e487b7100000000000000000000000000000000000000000000000000000000600052603260045260246000fd5b60200101907effffffffffffffffffffffffffffffffffffffffffffffffffffffffffffff1916908160001a905350600a856126679190613b18565b94506125bf565b8093505050505b919050565b600080823b905060008111915050919050565b6040518060e001604052806000815260200160608152602001606081526020016060815260200160008152602001600073ffffffffffffffffffffffffffffffffffffffff1681526020016000151581525090565b8280546126ee90613c69565b90600052602060002090601f0160209004810192826127105760008555612757565b82601f1061272957805160ff1916838001178555612757565b82800160010185558215612757579182015b8281111561275657825182559160200191906001019061273b565b5b5090506127649190612768565b5090565b5b80821115612781576000816000905550600101612769565b5090565b6000612798612793846139d5565b6139a4565b9050828152602081018484840111156127b057600080fd5b6127bb848285613c27565b509392505050565b60006127d66127d184613a05565b6139a4565b9050828152602081018484840111156127ee57600080fd5b6127f9848285613c27565b509392505050565b60008135905061281081613de2565b92915050565b60008135905061282581613df9565b92915050565b60008135905061283a81613e10565b92915050565b60008151905061284f81613e10565b92915050565b600082601f83011261286657600080fd5b8135612876848260208601612785565b91505092915050565b600082601f83011261289057600080fd5b81356128a08482602086016127c3565b91505092915050565b6000813590506128b881613e27565b92915050565b6000602082840312156128d057600080fd5b60006128de84828501612801565b91505092915050565b600080604083850312156128fa57600080fd5b600061290885828601612801565b925050602061291985828601612801565b9150509250929050565b60008060006060848603121561293857600080fd5b600061294686828701612801565b935050602061295786828701612801565b9250506040612968868287016128a9565b9150509250925092565b6000806000806080858703121561298857600080fd5b600061299687828801612801565b94505060206129a787828801612801565b93505060406129b8878288016128a9565b925050606085013567ffffffffffffffff8111156129d557600080fd5b6129e187828801612855565b91505092959194509250565b60008060408385031215612a0057600080fd5b6000612a0e85828601612801565b9250506020612a1f85828601612816565b9150509250929050565b60008060408385031215612a3c57600080fd5b6000612a4a85828601612801565b9250506020612a5b858286016128a9565b9150509250929050565b600060208284031215612a7757600080fd5b6000612a858482850161282b565b91505092915050565b600060208284031215612aa057600080fd5b6000612aae84828501612840565b91505092915050565b60008060008060808587031215612acd57600080fd5b600085013567ffffffffffffffff811115612ae757600080fd5b612af38782880161287f565b945050602085013567ffffffffffffffff811115612b1057600080fd5b612b1c8782880161287f565b935050604085013567ffffffffffffffff811115612b3957600080fd5b612b458782880161287f565b9250506060612b56878288016128a9565b91505092959194509250565b600060208284031215612b7457600080fd5b6000612b82848285016128a9565b91505092915050565b6000612b97838361344f565b905092915050565b612ba881613bf1565b82525050565b612bb781613b7d565b82525050565b612bc681613b7d565b82525050565b6000612bd782613a45565b612be18185613a73565b935083602082028501612bf385613a35565b8060005b85811015612c2f5784840389528151612c108582612b8b565b9450612c1b83613a66565b925060208a01995050600181019050612bf7565b50829750879550505050505092915050565b612c4a81613b8f565b82525050565b612c5981613b8f565b82525050565b6000612c6a82613a50565b612c748185613a84565b9350612c84818560208601613c36565b612c8d81613dd1565b840191505092915050565b6000612ca382613a5b565b612cad8185613a95565b9350612cbd818560208601613c36565b612cc681613dd1565b840191505092915050565b6000612cdc82613a5b565b612ce68185613aa6565b9350612cf6818560208601613c36565b612cff81613dd1565b840191505092915050565b6000612d1582613a5b565b612d1f8185613ab7565b9350612d2f818560208601613c36565b80840191505092915050565b6000612d48603283613aa6565b91507f4552433732313a207472616e7366657220746f206e6f6e20455243373231526560008301527f63656976657220696d706c656d656e74657200000000000000000000000000006020830152604082019050919050565b6000612dae601c83613aa6565b91507f4552433732313a20746f6b656e20616c7265616479206d696e746564000000006000830152602082019050919050565b6000612dee602483613aa6565b91507f4552433732313a207472616e7366657220746f20746865207a65726f2061646460008301527f72657373000000000000000000000000000000000000000000000000000000006020830152604082019050919050565b6000612e54601983613aa6565b91507f4552433732313a20617070726f766520746f2063616c6c6572000000000000006000830152602082019050919050565b6000612e94602d83613aa6565b91507f204f776e6572206f6620746865205065742063616e206e6f742063616c6c207460008301527f6869732066756e6374696f6e20000000000000000000000000000000000000006020830152604082019050919050565b6000612efa602c83613aa6565b91507f4552433732313a206f70657261746f7220717565727920666f72206e6f6e657860008301527f697374656e7420746f6b656e00000000000000000000000000000000000000006020830152604082019050919050565b6000612f60603883613aa6565b91507f4552433732313a20617070726f76652063616c6c6572206973206e6f74206f7760008301527f6e6572206e6f7220617070726f76656420666f7220616c6c00000000000000006020830152604082019050919050565b6000612fc6602a83613aa6565b91507f4552433732313a2062616c616e636520717565727920666f7220746865207a6560008301527f726f2061646472657373000000000000000000000000000000000000000000006020830152604082019050919050565b600061302c602983613aa6565b91507f4552433732313a206f776e657220717565727920666f72206e6f6e657869737460008301527f656e7420746f6b656e00000000000000000000000000000000000000000000006020830152604082019050919050565b6000613092602e83613aa6565b91507f45524337323155524953746f726167653a2055524920736574206f66206e6f6e60008301527f6578697374656e7420746f6b656e0000000000000000000000000000000000006020830152604082019050919050565b60006130f8602083613aa6565b91507f4552433732313a206d696e7420746f20746865207a65726f20616464726573736000830152602082019050919050565b6000613138603183613aa6565b91507f45524337323155524953746f726167653a2055524920717565727920666f722060008301527f6e6f6e6578697374656e7420746f6b656e0000000000000000000000000000006020830152604082019050919050565b600061319e602c83613aa6565b91507f4552433732313a20617070726f76656420717565727920666f72206e6f6e657860008301527f697374656e7420746f6b656e00000000000000000000000000000000000000006020830152604082019050919050565b6000613204602983613aa6565b91507f4552433732313a207472616e73666572206f6620746f6b656e2074686174206960008301527f73206e6f74206f776e00000000000000000000000000000000000000000000006020830152604082019050919050565b600061326a601d83613aa6565b91507f4572726f723a204574686572287329206e6f742070726f7669646564200000006000830152602082019050919050565b60006132aa602f83613aa6565b91507f4552433732314d657461646174613a2055524920717565727920666f72206e6f60008301527f6e6578697374656e7420746f6b656e00000000000000000000000000000000006020830152604082019050919050565b6000613310601783613aa6565b91507f5468697320746f6b656e206973206e6f742065786973740000000000000000006000830152602082019050919050565b6000613350602183613aa6565b91507f4552433732313a20617070726f76616c20746f2063757272656e74206f776e6560008301527f72000000000000000000000000000000000000000000000000000000000000006020830152604082019050919050565b60006133b6603183613aa6565b91507f4552433732313a207472616e736665722063616c6c6572206973206e6f74206f60008301527f776e6572206e6f7220617070726f7665640000000000000000000000000000006020830152604082019050919050565b600061341c601b83613aa6565b91507f546f6b656e20696420646f6573206e6f74206f766572666c6f772000000000006000830152602082019050919050565b600060e08301600083015161346760008601826134f9565b506020830151848203602086015261347f8282612c98565b915050604083015184820360408601526134998282612c98565b915050606083015184820360608601526134b38282612c98565b91505060808301516134c860808601826134f9565b5060a08301516134db60a0860182612bae565b5060c08301516134ee60c0860182612c41565b508091505092915050565b61350281613be7565b82525050565b61351181613be7565b82525050565b60006135238285612d0a565b915061352f8284612d0a565b91508190509392505050565b60006020820190506135506000830184612bbd565b92915050565b600060808201905061356b6000830187612bbd565b6135786020830186612bbd565b6135856040830185613508565b81810360608301526135978184612c5f565b905095945050505050565b600060208201905081810360008301526135bc8184612bcc565b905092915050565b60006020820190506135d96000830184612c50565b92915050565b600060208201905081810360008301526135f98184612cd1565b905092915050565b6000602082019050818103600083015261361a81612d3b565b9050919050565b6000602082019050818103600083015261363a81612da1565b9050919050565b6000602082019050818103600083015261365a81612de1565b9050919050565b6000602082019050818103600083015261367a81612e47565b9050919050565b6000602082019050818103600083015261369a81612e87565b9050919050565b600060208201905081810360008301526136ba81612eed565b9050919050565b600060208201905081810360008301526136da81612f53565b9050919050565b600060208201905081810360008301526136fa81612fb9565b9050919050565b6000602082019050818103600083015261371a8161301f565b9050919050565b6000602082019050818103600083015261373a81613085565b9050919050565b6000602082019050818103600083015261375a816130eb565b9050919050565b6000602082019050818103600083015261377a8161312b565b9050919050565b6000602082019050818103600083015261379a81613191565b9050919050565b600060208201905081810360008301526137ba816131f7565b9050919050565b600060208201905081810360008301526137da8161325d565b9050919050565b600060208201905081810360008301526137fa8161329d565b9050919050565b6000602082019050818103600083015261381a81613303565b9050919050565b6000602082019050818103600083015261383a81613343565b9050919050565b6000602082019050818103600083015261385a816133a9565b9050919050565b6000602082019050818103600083015261387a8161340f565b9050919050565b60006020820190506138966000830184613508565b92915050565b600060e0820190506138b1600083018a613508565b81810360208301526138c38189612cd1565b905081810360408301526138d78188612cd1565b905081810360608301526138eb8187612cd1565b90506138fa6080830186613508565b61390760a0830185612b9f565b61391460c0830184612c50565b98975050505050505050565b600060e082019050613935600083018a613508565b81810360208301526139478189612cd1565b9050818103604083015261395b8188612cd1565b9050818103606083015261396f8187612cd1565b905061397e6080830186613508565b61398b60a0830185612bbd565b61399860c0830184612c50565b98975050505050505050565b6000604051905081810181811067ffffffffffffffff821117156139cb576139ca613da2565b5b8060405250919050565b600067ffffffffffffffff8211156139f0576139ef613da2565b5b601f19601f8301169050602081019050919050565b600067ffffffffffffffff821115613a2057613a1f613da2565b5b601f19601f8301169050602081019050919050565b6000819050602082019050919050565b600081519050919050565b600081519050919050565b600081519050919050565b6000602082019050919050565b600082825260208201905092915050565b600082825260208201905092915050565b600082825260208201905092915050565b600082825260208201905092915050565b600081905092915050565b6000613acd82613be7565b9150613ad883613be7565b9250827fffffffffffffffffffffffffffffffffffffffffffffffffffffffffffffffff03821115613b0d57613b0c613d15565b5b828201905092915050565b6000613b2382613be7565b9150613b2e83613be7565b925082613b3e57613b3d613d44565b5b828204905092915050565b6000613b5482613be7565b9150613b5f83613be7565b925082821015613b7257613b71613d15565b5b828203905092915050565b6000613b8882613bc7565b9050919050565b60008115159050919050565b60007fffffffff0000000000000000000000000000000000000000000000000000000082169050919050565b600073ffffffffffffffffffffffffffffffffffffffff82169050919050565b6000819050919050565b6000613bfc82613c03565b9050919050565b6000613c0e82613c15565b9050919050565b6000613c2082613bc7565b9050919050565b82818337600083830152505050565b60005b83811015613c54578082015181840152602081019050613c39565b83811115613c63576000848401525b50505050565b60006002820490506001821680613c8157607f821691505b60208210811415613c9557613c94613d73565b5b50919050565b6000613ca682613be7565b91507fffffffffffffffffffffffffffffffffffffffffffffffffffffffffffffffff821415613cd957613cd8613d15565b5b600182019050919050565b6000613cef82613be7565b9150613cfa83613be7565b925082613d0a57613d09613d44565b5b828206905092915050565b7f4e487b7100000000000000000000000000000000000000000000000000000000600052601160045260246000fd5b7f4e487b7100000000000000000000000000000000000000000000000000000000600052601260045260246000fd5b7f4e487b7100000000000000000000000000000000000000000000000000000000600052602260045260246000fd5b7f4e487b7100000000000000000000000000000000000000000000000000000000600052604160045260246000fd5b6000601f19601f8301169050919050565b613deb81613b7d565b8114613df657600080fd5b50565b613e0281613b8f565b8114613e0d57600080fd5b50565b613e1981613b9b565b8114613e2457600080fd5b50565b613e3081613be7565b8114613e3b57600080fd5b5056fea2646970667358221220a6e7ebd617af4a391afcade7114d82103509fbb03f434c74127423688bd619c864736f6c63430008000033",
  "immutableReferences": {},
  "source": "pragma solidity ^0.8;\r\n\r\nimport \"@openzeppelin/contracts/token/ERC721/extensions/ERC721URIStorage.sol\" ;\r\npragma experimental ABIEncoderV2;\r\n\r\ncontract petshop is ERC721URIStorage{\r\n    \r\n    uint public _tokenId;\r\n    \r\n    struct Pet{\r\n        uint tokenId;\r\n        string image;\r\n        string breed;\r\n        string location;\r\n        uint price;\r\n        address owner;\r\n        bool sold;\r\n    }\r\n    \r\n    constructor() public ERC721(\"PET SHOP\", \"PS\"){\r\n        \r\n    }\r\n    Pet[] PetList;\r\n    mapping(address => Pet) public myPets;\r\n    mapping(uint => Pet) public AllPets;\r\n    event pets( uint tokenId,\r\n        string image,\r\n        string breed,\r\n        string location,\r\n        uint price,\r\n        address owner,\r\n        bool sold);\r\n    \r\n    function registerPet (string memory _image, string memory _breed, string memory _location, uint _price  ) public returns( bool){\r\n        \r\n       _tokenId++;\r\n        \r\n        address payable _owner =payable(msg.sender);\r\n        Pet memory temp;\r\n        \r\n        temp = Pet({\r\n            tokenId:_tokenId,\r\n            image:_image,\r\n            breed:_breed,\r\n            location:_location,\r\n            price:_price,\r\n            owner:_owner,\r\n            sold: false\r\n        });\r\n            \r\n        myPets[msg.sender] = temp;\r\n        AllPets[_tokenId] = temp;\r\n        \r\n        PetList.push(temp);\r\n        _mint(msg.sender,_tokenId);\r\n        \r\n        _setTokenURI(_tokenId,_image);\r\n        emit pets(_tokenId,_image,_breed,_location,_price,_owner,false);\r\n        return true;\r\n    }\r\n    \r\n    function buyPet (uint256 tokenId) payable public returns(bool){\r\n        \r\n        require ( _exists(tokenId), \"This token is not exist\" );\r\n        require( tokenId > 0,\"Token id does not overflow \");\r\n        require(msg.value > 0, \"Error: Ether(s) not provided \");\r\n     \r\n        address payable _ownerAddress =payable(AllPets[tokenId].owner);\r\n        require(myPets[_ownerAddress].owner != msg.sender,\" Owner of the Pet can not call this function \");\r\n        bool isFundSend =  _ownerAddress.send(msg.value);\r\n        _transfer(_ownerAddress, msg.sender, tokenId);\r\n        \r\n        return isFundSend;\r\n    }\r\n\r\n    function getAllPets() public view returns (Pet[] memory) {\r\n        return PetList;\r\n    }\r\n\r\n}",
  "sourcePath": "E:/BLOCKCHAIN/Q4/PetShopIPFS/contracts/PetShop.sol",
  "compiler": {
    "name": "solc",
    "version": "0.8.0+commit.c7dfd78e.Emscripten.clang"
  },
  "schemaVersion": "3.3.4",
  "updatedAt": "2021-04-17T13:07:19.031Z",
  "networkType": "ethereum",
  "devdoc": {
    "kind": "dev",
    "methods": {
      "approve(address,uint256)": {
        "details": "See {IERC721-approve}."
      },
      "balanceOf(address)": {
        "details": "See {IERC721-balanceOf}."
      },
      "getApproved(uint256)": {
        "details": "See {IERC721-getApproved}."
      },
      "isApprovedForAll(address,address)": {
        "details": "See {IERC721-isApprovedForAll}."
      },
      "name()": {
        "details": "See {IERC721Metadata-name}."
      },
      "ownerOf(uint256)": {
        "details": "See {IERC721-ownerOf}."
      },
      "safeTransferFrom(address,address,uint256)": {
        "details": "See {IERC721-safeTransferFrom}."
      },
      "safeTransferFrom(address,address,uint256,bytes)": {
        "details": "See {IERC721-safeTransferFrom}."
      },
      "setApprovalForAll(address,bool)": {
        "details": "See {IERC721-setApprovalForAll}."
      },
      "supportsInterface(bytes4)": {
        "details": "See {IERC165-supportsInterface}."
      },
      "symbol()": {
        "details": "See {IERC721Metadata-symbol}."
      },
      "tokenURI(uint256)": {
        "details": "See {IERC721Metadata-tokenURI}."
      },
      "transferFrom(address,address,uint256)": {
        "details": "See {IERC721-transferFrom}."
      }
    },
    "version": 1
  },
  "userdoc": {
    "kind": "user",
    "methods": {},
    "version": 1
  }
}